:100000000C945E000C9486000C9486000C94860080
:100010000C9486000C9486000C9486000C94540476
:100020000C9486000C9486000C9486000C94860038
:100030000C9486000C9486000C9486000C94860028
:100040000C942E050C9486000C94FC040C94D6049D
:100050000C9486000C9486000C9486000C94860008
:100060000C9486000C948600000000080002010039
:100070000003040700000000000000000200000070
:1000800000250028002B0000000000240027002A83
:100090000004040404040404040202020202020331
:1000A000030303030301020408102040800102043B
:1000B000081020010204081020003F0611241FBE72
:1000C000CFEFD8E0DEBFCDBF11E0A0E0B1E0E4E7C4
:1000D000FDE002C005900D92A231B107D9F721E0F1
:1000E000A2E1B1E001C01D92AD3CB207E1F710E022
:1000F000CEE5D0E004C02197FE010E94AD06CD35CB
:10010000D107C9F70E9478050C94B8060C9400003A
:1001100090E0FC01EB55FF4F2491FC01EF56FF4F9F
:100120008491882399F090E0880F991FFC01E9578A
:10013000FF4FA591B491FC01E358FF4F8591949135
:100140008FB7F894EC91E22BEC938FBF08958F92C8
:100150009F92AF92BF92CF92DF92EF92FF92CF9396
:1001600020910001243021F02F3F09F0EFC104C09D
:10017000ECE7F0E0C49172C024E020930001ECE7CA
:10018000F0E0C491CF3F09F4E1C1C13009F1C230C0
:1001900009F441C0C11162C014BC15BC24B5226071
:1001A00024BD25B5216025BDE5E9F0E0E491F0E04E
:1001B000EE0FFF1FE358FF4F259134913093C0019C
:1001C0002093BF01E9EAF0E0E491E093BE0148C06A
:1001D000109280001092810020918100286020936D
:1001E000810020918100216020938100E5E9F0E009
:1001F000E491F0E0EE0FFF1FE358FF4F259134919B
:100200003093BD012093BC01E9EAF0E0E491E09372
:10021000BB01C1E025C01092B0001092B100209146
:10022000B00022602093B0002091B10021602093A3
:10023000B100E5E9F0E0E491F0E0EE0FFF1FE358D4
:10024000FF4F259134913093BA012093B901E9EA27
:10025000F0E0E491E093B801C2E002C0C7FD76C1CE
:100260004C0184E00E948800A12CB12C8C2F8D7F42
:1002700009F0A9C060E072E18AE790E0A50194016D
:100280000E946C0669017A01BA01A9014150510925
:10029000610971094F3F51056105710509F008F4C5
:1002A00045C060E472E48FE090E0A50194010E94F3
:1002B0006C06BA01A9014150510961097109C230A6
:1002C000E9F44F3F51056105710509F008F43CC19F
:1002D00060E970ED83E090E0A50194010E946C0656
:1002E000BA01A90141505109610971094F3F5105F6
:1002F0006105710509F0A8F583E05EC04F3F510527
:1003000061057105A9F0A0F068E478EE81E090E065
:10031000A50194010E946C06BA01A901415051093E
:1003200061097109CC2309F4BEC006C181E001C096
:1003300082E0CC2389F040C0D701C6012AE0B59500
:10034000A795979587952A95D1F7AC01BD014150A6
:1003500051096109710985E095B5987F892B85BDA3
:1003600066C068E478EE81E090E0A50194010E9407
:100370006C06BA01A90141505109610971094F3F49
:1003800051056105710509F008F48BC064E274EF52
:1003900080E090E0A50194010E946C06BA01A901D9
:1003A00041505109610971094F3F510561057105BE
:1003B00011F008F097C085E09091B100987F892BEB
:1003C0008093B1002EC060E072E18AE790E0A50161
:1003D00094010E946C06BA01A901415051096109BA
:1003E00071094115510581E06807710580F068E4E5
:1003F00078EE81E090E0A50194010E946C06BA01BC
:10040000A901415051096109710993E001C091E0CE
:10041000C13039F480918100887F892B80938100DD
:1004200018C0C130B1F0C23049F1C1118FC047BD11
:100430008FEF9FEFDC018093C9019093CA01A093D5
:10044000CB01B093CC0180916E00826080936E00EE
:100450007DC050938900409388008FEF9FEFDC01AF
:100460008093C5019093C601A093C701B093C801C2
:1004700080916F00826080936F0068C04093B300EA
:100480008FEF9FEFDC018093C1019093C201A09395
:10049000C301B093C40180917000826080937000AA
:1004A00055C084E089CF4F3F510561057105C1F00A
:1004B000B8F062E17AE780E090E0A50194010E9443
:1004C0006C06BA01A90141505109610971094F3FF8
:1004D00051056105710511F008F02ECF84E03CCF85
:1004E00083E03ACF62E17AE780E090E0A5019401F1
:1004F0000E946C06BA01A9014150510961097109B4
:100500004F3F510561057105A9F0A0F0D701C60163
:100510003AE0B595A795979587953A95D1F7AC01AF
:10052000BD014150510961097109CC2309F413CF70
:1005300087E042CF86E0FDCE4F3F51056105710552
:1005400009F080F684E0F5CE82E036CFCF91FF90BF
:10055000EF90DF90CF90BF90AF909F908F900895D5
:10056000CF92DF92EF92FF920F931F93CF93DF937F
:100570006C017A018B01C0E0D0E0CE15DF0589F077
:10058000D8016D918D01D601ED91FC910190F08122
:10059000E02DC6010995892B11F47E0102C0219638
:1005A000ECCFC701DF91CF911F910F91FF90EF909A
:1005B000DF90CF900895FC01918D828D981761F0A6
:1005C000828DDF01A80FB11D5D968C91928D9F5F8A
:1005D0009F73928F90E008958FEF9FEF0895FC0135
:1005E000918D828D981731F0828DE80FF11D858DE8
:1005F00090E008958FEF9FEF0895FC01918D228D7B
:10060000892F90E0805C9F4F821B91098F739927FF
:1006100008958BE191E00E94FD0221E0892B09F40D
:1006200020E0822F0895FC01848DDF01A80FB11D09
:10063000A35ABF4F2C91848D90E001968F73992718
:10064000848FA689B7892C93A089B1898C91806405
:100650008C93938D848D981306C00288F389E02DC6
:1006600080818F7D80830895EF92FF920F931F9377
:10067000CF93DF93EC0181E0888F9B8D8C8D981355
:1006800005C0E889F989808185FD24C0F62E0B8D8F
:1006900010E00F5F1F4F0F731127E02E8C8DE812B3
:1006A0000CC00FB607FCFACFE889F989808185FF75
:1006B000F5CFCE010E941303F1CF8B8DFE01E80F21
:1006C000F11DE35AFF4FF0820B8FEA89FB8980818D
:1006D000806207C0EE89FF896083E889F98980819B
:1006E0008064808381E090E0DF91CF911F910F9132
:1006F000FF90EF900895CF93DF93EC01888D8823CE
:10070000C9F0EA89FB89808185FD05C0A889B9897E
:100710008C9186FD0FC00FB607FCF5CF808185FF59
:10072000F2CFA889B9898C9185FFEDCFCE010E94C7
:100730001303E7CFDF91CF91089580E090E0892BFC
:1007400029F00E94090381110C940000089590E0A3
:10075000FC01E859FF4F3491FC01EB55FF4F249108
:10076000FC01EF56FF4FE491EE2309F43BC0332325
:1007700039F1333091F038F43130A9F0323001F5ED
:1007800084B58F7D12C0373091F03830A1F034300D
:10079000B9F4809180008F7D03C0809180008F77B5
:1007A000809380000DC084B58F7784BD09C080918F
:1007B000B0008F7703C08091B0008F7D8093B00030
:1007C000F0E0EE0FFF1FE358FF4FA591B4918FB7F4
:1007D000F894EC91611103C020952E2301C02E2BBB
:1007E0002C938FBF08953FB7F89480911701909193
:1007F0001801A0911901B0911A0126B5A89B05C056
:100800002F3F19F00196A11DB11D3FBFBA2FA92F8F
:10081000982F8827820F911DA11DB11DBC01CD010C
:1008200042E0660F771F881F991F4A95D1F70895F8
:100830008F929F92AF92BF92CF92DF92EF92FF92F0
:100840006B017C010E94F3034B015C01C114D104D4
:10085000E104F104F1F00E94F303DC01CB018819FB
:100860009909AA09BB09883E9340A105B10570F317
:1008700021E0C21AD108E108F10888EE880E83E071
:10088000981EA11CB11CC114D104E104F10419F794
:10089000DDCFFF90EF90DF90CF90BF90AF909F9013
:1008A0008F9008950E94B3061F920F920FB60F9279
:1008B00011242F933F934F935F936F937F938F9365
:1008C0009F93AF93BF93EF93FF938091C10190915A
:1008D000C201A091C301B091C401892B8A2B8B2B3B
:1008E00059F18091B801E091B901F091BA0190817C
:1008F000892780838091C1019091C201A091C30199
:10090000B091C401181619061A061B060CF03DC05A
:100910008091C1019091C201A091C301B091C40125
:100920000197A109B1098093C1019093C201A093DD
:10093000C301B093C40129C080910001ECE7F0E04D
:10094000E4919FEF90930001E130B9F098F0E2302C
:10095000C9F4909170009D7F9093700091E0909306
:10096000B0009091B100987F94609093B100109284
:10097000B30008C010926E0005C090916F009D7F7B
:1009800090936F0060E00E94A703FF91EF91BF91E9
:10099000AF919F918F917F916F915F914F913F9117
:1009A0002F910F900FBE0F901F9018951F920F92CE
:1009B0000FB60F9211242F933F934F935F936F9332
:1009C0007F938F939F93AF93BF93EF93FF938BE1AD
:1009D00091E00E941303FF91EF91BF91AF919F911E
:1009E0008F917F916F915F914F913F912F910F90D8
:1009F0000FBE0F901F9018951F920F920FB60F9277
:100A000011242F938F939F93EF93FF93E0912B01EA
:100A1000F0912C018081E0913101F091320182FD51
:100A200012C09081809134018F5F8F7320913501C6
:100A3000821751F0E0913401F0E0E55EFE4F958FB2
:100A40008093340101C08081FF91EF919F918F913C
:100A50002F910F900FBE0F901F9018951F920F921D
:100A60000FB60F9211242F933F938F939F93AF93C1
:100A7000BF938091130190911401A0911501B09141
:100A800016013091120123E0230F2D3720F4019637
:100A9000A11DB11D05C026E8230F0296A11DB11DA1
:100AA000209312018093130190931401A0931501D8
:100AB000B09316018091170190911801A09119012E
:100AC000B0911A010196A11DB11D80931701909359
:100AD0001801A0931901B0931A01BF91AF919F9192
:100AE0008F913F912F910F900FBE0F901F901895EF
:100AF000789484B5826084BD84B5816084BD85B5F9
:100B0000826085BD85B5816085BD80916E00816004
:100B100080936E00109281008091810082608093AA
:100B200081008091810081608093810080918000AC
:100B30008160809380008091B10084608093B100D7
:100B40008091B00081608093B00080917A008460D1
:100B500080937A0080917A00826080937A008091FD
:100B60007A00816080937A0080917A008068809317
:100B70007A001092C100E0912B01F0912C0182E0EB
:100B80008083E0912701F09128011082E0912901F2
:100B9000F0912A018FEC808310923301E0912F01B4
:100BA000F091300186E08083E0912D01F0912E01DB
:100BB000808180618083E0912D01F0912E01808100
:100BC00088608083E0912D01F0912E018081806802
:100BD0008083E0912D01F0912E0180818F7D8083B3
:100BE0008DE00E94880085E00E94880060E085E03A
:100BF0000E94A70333E430937C0080917A008064E4
:100C000080937A0080917A0086FDFCCF80917800F5
:100C10002091790090E0922B843F914064F361E051
:100C20008DE00E94A703C8ECD0E084E00E94880019
:100C3000CE010E94A70065E070E080E090E00E9495
:100C400018042196C13283E0D80779F760EA7FE083
:100C500080E090E00E941804C0E2D3E084E00E94AB
:100C60008800CE010E94A7006AE070E080E090E07A
:100C70000E9418042197C73CD10581F7D0CFEBE142
:100C8000F1E01382128288EE93E0A0E0B0E084836A
:100C90009583A683B78385E091E09183808385EC7B
:100CA00090E09587848784EC90E09787868780EC36
:100CB00090E0918B808B81EC90E0938B828B82EC27
:100CC00090E0958B848B86EC90E0978B868B118ED1
:100CD000128E138E148E0895052E97FB1EF4009429
:100CE0000E94830657FD07D00E948B0607FC03D0A5
:100CF0004EF40C94830650954095309521953F4FC6
:100D00004F4F5F4F089590958095709561957F4FF7
:100D10008F4F9F4F0895A1E21A2EAA1BBB1BFD0106
:100D20000DC0AA1FBB1FEE1FFF1FA217B307E407CA
:100D3000F50720F0A21BB30BE40BF50B661F771F22
:100D4000881F991F1A9469F7609570958095909502
:100D50009B01AC01BD01CF010895EE0FFF1F05906F
:100D6000F491E02D099481E090E0F8940C94B80699
:040D7000F894FFCF25
:100D7400FF000000003403B002FD02DB02EF027B3F
:020D840003006A
:00000001FF
